{
  "contractName": "GlobotourWallet",
  "abi": [
    {
      "inputs": [
        {
          "internalType": "address",
          "name": "_vendor",
          "type": "address"
        }
      ],
      "stateMutability": "nonpayable",
      "type": "constructor"
    },
    {
      "anonymous": false,
      "inputs": [
        {
          "indexed": true,
          "internalType": "uint256",
          "name": "bookingId",
          "type": "uint256"
        },
        {
          "indexed": true,
          "internalType": "address",
          "name": "user",
          "type": "address"
        },
        {
          "indexed": true,
          "internalType": "address",
          "name": "vendor",
          "type": "address"
        },
        {
          "indexed": false,
          "internalType": "string",
          "name": "hotelName",
          "type": "string"
        },
        {
          "indexed": false,
          "internalType": "uint256",
          "name": "amount",
          "type": "uint256"
        },
        {
          "indexed": false,
          "internalType": "string",
          "name": "checkIn",
          "type": "string"
        },
        {
          "indexed": false,
          "internalType": "string",
          "name": "checkOut",
          "type": "string"
        }
      ],
      "name": "BookingCreated",
      "type": "event"
    },
    {
      "anonymous": false,
      "inputs": [
        {
          "indexed": true,
          "internalType": "address",
          "name": "user",
          "type": "address"
        },
        {
          "indexed": false,
          "internalType": "uint256",
          "name": "amount",
          "type": "uint256"
        },
        {
          "indexed": false,
          "internalType": "uint256",
          "name": "timestamp",
          "type": "uint256"
        }
      ],
      "name": "Deposit",
      "type": "event"
    },
    {
      "anonymous": false,
      "inputs": [
        {
          "indexed": true,
          "internalType": "uint256",
          "name": "bookingId",
          "type": "uint256"
        },
        {
          "indexed": true,
          "internalType": "address",
          "name": "vendor",
          "type": "address"
        },
        {
          "indexed": false,
          "internalType": "uint256",
          "name": "amount",
          "type": "uint256"
        }
      ],
      "name": "PaymentSent",
      "type": "event"
    },
    {
      "inputs": [
        {
          "internalType": "address",
          "name": "",
          "type": "address"
        }
      ],
      "name": "balances",
      "outputs": [
        {
          "internalType": "uint256",
          "name": "",
          "type": "uint256"
        }
      ],
      "stateMutability": "view",
      "type": "function",
      "constant": true
    },
    {
      "inputs": [],
      "name": "vendor",
      "outputs": [
        {
          "internalType": "address",
          "name": "",
          "type": "address"
        }
      ],
      "stateMutability": "view",
      "type": "function",
      "constant": true
    },
    {
      "inputs": [],
      "name": "depositFunds",
      "outputs": [],
      "stateMutability": "payable",
      "type": "function",
      "payable": true
    },
    {
      "inputs": [
        {
          "internalType": "string",
          "name": "hotelName",
          "type": "string"
        },
        {
          "internalType": "string",
          "name": "checkIn",
          "type": "string"
        },
        {
          "internalType": "string",
          "name": "checkOut",
          "type": "string"
        },
        {
          "internalType": "uint256",
          "name": "amount",
          "type": "uint256"
        },
        {
          "internalType": "string",
          "name": "currency",
          "type": "string"
        }
      ],
      "name": "makeBooking",
      "outputs": [
        {
          "internalType": "uint256",
          "name": "bookingId",
          "type": "uint256"
        }
      ],
      "stateMutability": "nonpayable",
      "type": "function"
    },
    {
      "inputs": [],
      "name": "checkBalance",
      "outputs": [
        {
          "internalType": "uint256",
          "name": "",
          "type": "uint256"
        }
      ],
      "stateMutability": "view",
      "type": "function",
      "constant": true
    },
    {
      "inputs": [],
      "name": "getTotalBookings",
      "outputs": [
        {
          "internalType": "uint256",
          "name": "",
          "type": "uint256"
        }
      ],
      "stateMutability": "view",
      "type": "function",
      "constant": true
    },
    {
      "inputs": [
        {
          "internalType": "uint256",
          "name": "id",
          "type": "uint256"
        }
      ],
      "name": "getBooking",
      "outputs": [
        {
          "internalType": "address",
          "name": "user",
          "type": "address"
        },
        {
          "internalType": "string",
          "name": "hotelName",
          "type": "string"
        },
        {
          "internalType": "string",
          "name": "checkIn",
          "type": "string"
        },
        {
          "internalType": "string",
          "name": "checkOut",
          "type": "string"
        },
        {
          "internalType": "uint256",
          "name": "amount",
          "type": "uint256"
        },
        {
          "internalType": "string",
          "name": "currency",
          "type": "string"
        },
        {
          "internalType": "uint256",
          "name": "timestamp",
          "type": "uint256"
        }
      ],
      "stateMutability": "view",
      "type": "function",
      "constant": true
    },
    {
      "inputs": [
        {
          "internalType": "address",
          "name": "user",
          "type": "address"
        }
      ],
      "name": "getUserBookings",
      "outputs": [
        {
          "internalType": "uint256[]",
          "name": "",
          "type": "uint256[]"
        }
      ],
      "stateMutability": "view",
      "type": "function",
      "constant": true
    },
    {
      "inputs": [],
      "name": "getVendorAddress",
      "outputs": [
        {
          "internalType": "address",
          "name": "",
          "type": "address"
        }
      ],
      "stateMutability": "view",
      "type": "function",
      "constant": true
    }
  ],
  "bytecode": "0x60806040523480156200001157600080fd5b506040516200187238038062001872833981810160405281019062000037919062000108565b600073ffffffffffffffffffffffffffffffffffffffff168173ffffffffffffffffffffffffffffffffffffffff161415620000aa576040517f08c379a0000000000000000000000000000000000000000000000000000000008152600401620000a19062000176565b60405180910390fd5b806000806101000a81548173ffffffffffffffffffffffffffffffffffffffff021916908373ffffffffffffffffffffffffffffffffffffffff16021790555050620001f7565b6000815190506200010281620001dd565b92915050565b6000602082840312156200011b57600080fd5b60006200012b84828501620000f1565b91505092915050565b60006200014360178362000198565b91507f56656e646f7220616464726573732072657175697265640000000000000000006000830152602082019050919050565b60006020820190508181036000830152620001918162000134565b9050919050565b600082825260208201905092915050565b6000620001b682620001bd565b9050919050565b600073ffffffffffffffffffffffffffffffffffffffff82169050919050565b620001e881620001a9565b8114620001f457600080fd5b50565b61166b80620002076000396000f3fe6080604052600436106100865760003560e01c80637b9f8420116100595780637b9f842014610173578063c71daccb1461019e578063e2c41dbc146101c9578063ee5d9508146101d3578063ef3197c8146101fe57610086565b80631385a6f21461008b57806327e235e3146100b65780636a5c841a146100f35780637b34c30814610136575b600080fd5b34801561009757600080fd5b506100a061023b565b6040516100ad9190611212565b60405180910390f35b3480156100c257600080fd5b506100dd60048036038101906100d89190610ea0565b61025f565b6040516100ea91906113ba565b60405180910390f35b3480156100ff57600080fd5b5061011a60048036038101906101159190610fb1565b610277565b60405161012d979695949392919061122d565b60405180910390f35b34801561014257600080fd5b5061015d60048036038101906101589190610ec9565b610611565b60405161016a91906113ba565b60405180910390f35b34801561017f57600080fd5b50610188610b8a565b60405161019591906113ba565b60405180910390f35b3480156101aa57600080fd5b506101b3610b97565b6040516101c091906113ba565b60405180910390f35b6101d1610bde565b005b3480156101df57600080fd5b506101e8610cc9565b6040516101f59190611212565b60405180910390f35b34801561020a57600080fd5b5061022560048036038101906102209190610ea0565b610cf2565b60405161023291906112b8565b60405180910390f35b60008054906101000a900473ffffffffffffffffffffffffffffffffffffffff1681565b60016020528060005260406000206000915090505481565b6000606080606060006060600060028054905088106102cb576040517f08c379a00000000000000000000000000000000000000000000000000000000081526004016102c29061139a565b60405180910390fd5b600060028981548110610307577f4e487b7100000000000000000000000000000000000000000000000000000000600052603260045260246000fd5b90600052602060002090600702016040518060e00160405290816000820160009054906101000a900473ffffffffffffffffffffffffffffffffffffffff1673ffffffffffffffffffffffffffffffffffffffff1673ffffffffffffffffffffffffffffffffffffffff16815260200160018201805461038690611566565b80601f01602080910402602001604051908101604052809291908181526020018280546103b290611566565b80156103ff5780601f106103d4576101008083540402835291602001916103ff565b820191906000526020600020905b8154815290600101906020018083116103e257829003601f168201915b5050505050815260200160028201805461041890611566565b80601f016020809104026020016040519081016040528092919081815260200182805461044490611566565b80156104915780601f1061046657610100808354040283529160200191610491565b820191906000526020600020905b81548152906001019060200180831161047457829003601f168201915b505050505081526020016003820180546104aa90611566565b80601f01602080910402602001604051908101604052809291908181526020018280546104d690611566565b80156105235780601f106104f857610100808354040283529160200191610523565b820191906000526020600020905b81548152906001019060200180831161050657829003601f168201915b505050505081526020016004820154815260200160058201805461054690611566565b80601f016020809104026020016040519081016040528092919081815260200182805461057290611566565b80156105bf5780601f10610594576101008083540402835291602001916105bf565b820191906000526020600020905b8154815290600101906020018083116105a257829003601f168201915b505050505081526020016006820154815250509050806000015181602001518260400151836060015184608001518560a001518660c00151975097509750975097509750975050919395979092949650565b600083600160003373ffffffffffffffffffffffffffffffffffffffff1673ffffffffffffffffffffffffffffffffffffffff168152602001908152602001600020541015610695576040517f08c379a000000000000000000000000000000000000000000000000000000000815260040161068c9061137a565b60405180910390fd5b83600160003373ffffffffffffffffffffffffffffffffffffffff1673ffffffffffffffffffffffffffffffffffffffff16815260200190815260200160002060008282546106e491906114b4565b92505081905550600280549050905060026040518060e001604052803373ffffffffffffffffffffffffffffffffffffffff1681526020018c8c8080601f016020809104026020016040519081016040528093929190818152602001838380828437600081840152601f19601f8201169050808301925050505050505081526020018a8a8080601f016020809104026020016040519081016040528093929190818152602001838380828437600081840152601f19601f82011690508083019250505050505050815260200188888080601f016020809104026020016040519081016040528093929190818152602001838380828437600081840152601f19601f82011690508083019250505050505050815260200186815260200185858080601f016020809104026020016040519081016040528093929190818152602001838380828437600081840152601f19601f82011690508083019250505050505050815260200142815250908060018154018082558091505060019003906000526020600020906007020160009091909190915060008201518160000160006101000a81548173ffffffffffffffffffffffffffffffffffffffff021916908373ffffffffffffffffffffffffffffffffffffffff16021790555060208201518160010190805190602001906108da929190610d89565b5060408201518160020190805190602001906108f7929190610d89565b506060820151816003019080519060200190610914929190610d89565b506080820151816004015560a082015181600501908051906020019061093b929190610d89565b5060c082015181600601555050600360003373ffffffffffffffffffffffffffffffffffffffff1673ffffffffffffffffffffffffffffffffffffffff16815260200190815260200160002081908060018154018082558091505060019003906000526020600020016000909190919091505560008054906101000a900473ffffffffffffffffffffffffffffffffffffffff1673ffffffffffffffffffffffffffffffffffffffff163373ffffffffffffffffffffffffffffffffffffffff16827f52ca9f7d2b14ffa1028e1ece3a9cfd643a02779b31339c3d8ee14fb18e63c9468d8d898e8e8e8e604051610a3897969594939291906112da565b60405180910390a460008060009054906101000a900473ffffffffffffffffffffffffffffffffffffffff1673ffffffffffffffffffffffffffffffffffffffff1685604051610a87906111fd565b60006040518083038185875af1925050503d8060008114610ac4576040519150601f19603f3d011682016040523d82523d6000602084013e610ac9565b606091505b5050905080610b0d576040517f08c379a0000000000000000000000000000000000000000000000000000000008152600401610b049061135a565b60405180910390fd5b60008054906101000a900473ffffffffffffffffffffffffffffffffffffffff1673ffffffffffffffffffffffffffffffffffffffff16827f952e5301753c5bc62cbfbdbe1b6553cd54796e01da9cfeaaf29921d6ede1a72687604051610b7491906113ba565b60405180910390a3509998505050505050505050565b6000600280549050905090565b6000600160003373ffffffffffffffffffffffffffffffffffffffff1673ffffffffffffffffffffffffffffffffffffffff16815260200190815260200160002054905090565b60003411610c21576040517f08c379a0000000000000000000000000000000000000000000000000000000008152600401610c189061133a565b60405180910390fd5b34600160003373ffffffffffffffffffffffffffffffffffffffff1673ffffffffffffffffffffffffffffffffffffffff1681526020019081526020016000206000828254610c70919061145e565b925050819055503373ffffffffffffffffffffffffffffffffffffffff167f90890809c654f11d6e72a28fa60149770a0d11ec6c92319d6ceb2bb0a4ea1a153442604051610cbf9291906113d5565b60405180910390a2565b60008060009054906101000a900473ffffffffffffffffffffffffffffffffffffffff16905090565b6060600360008373ffffffffffffffffffffffffffffffffffffffff1673ffffffffffffffffffffffffffffffffffffffff168152602001908152602001600020805480602002602001604051908101604052809291908181526020018280548015610d7d57602002820191906000526020600020905b815481526020019060010190808311610d69575b50505050509050919050565b828054610d9590611566565b90600052602060002090601f016020900481019282610db75760008555610dfe565b82601f10610dd057805160ff1916838001178555610dfe565b82800160010185558215610dfe579182015b82811115610dfd578251825591602001919060010190610de2565b5b509050610e0b9190610e0f565b5090565b5b80821115610e28576000816000905550600101610e10565b5090565b600081359050610e3b81611607565b92915050565b60008083601f840112610e5357600080fd5b8235905067ffffffffffffffff811115610e6c57600080fd5b602083019150836001820283011115610e8457600080fd5b9250929050565b600081359050610e9a8161161e565b92915050565b600060208284031215610eb257600080fd5b6000610ec084828501610e2c565b91505092915050565b600080600080600080600080600060a08a8c031215610ee757600080fd5b60008a013567ffffffffffffffff811115610f0157600080fd5b610f0d8c828d01610e41565b995099505060208a013567ffffffffffffffff811115610f2c57600080fd5b610f388c828d01610e41565b975097505060408a013567ffffffffffffffff811115610f5757600080fd5b610f638c828d01610e41565b95509550506060610f768c828d01610e8b565b93505060808a013567ffffffffffffffff811115610f9357600080fd5b610f9f8c828d01610e41565b92509250509295985092959850929598565b600060208284031215610fc357600080fd5b6000610fd184828501610e8b565b91505092915050565b6000610fe683836111df565b60208301905092915050565b610ffb816114e8565b82525050565b600061100c8261140e565b6110168185611431565b9350611021836113fe565b8060005b838110156110525781516110398882610fda565b975061104483611424565b925050600181019050611025565b5085935050505092915050565b600061106b838561144d565b9350611078838584611524565b611081836115f6565b840190509392505050565b600061109782611419565b6110a1818561144d565b93506110b1818560208601611533565b6110ba816115f6565b840191505092915050565b60006110d2600e8361144d565b91507f496e76616c696420616d6f756e740000000000000000000000000000000000006000830152602082019050919050565b600061111260188361144d565b91507f5061796d656e7420746f2076656e646f72206661696c656400000000000000006000830152602082019050919050565b600061115260148361144d565b91507f496e73756666696369656e742062616c616e63650000000000000000000000006000830152602082019050919050565b600061119260118361144d565b91507f426f6f6b696e67206e6f7420666f756e640000000000000000000000000000006000830152602082019050919050565b60006111d2600083611442565b9150600082019050919050565b6111e88161151a565b82525050565b6111f78161151a565b82525050565b6000611208826111c5565b9150819050919050565b60006020820190506112276000830184610ff2565b92915050565b600060e082019050611242600083018a610ff2565b8181036020830152611254818961108c565b90508181036040830152611268818861108c565b9050818103606083015261127c818761108c565b905061128b60808301866111ee565b81810360a083015261129d818561108c565b90506112ac60c08301846111ee565b98975050505050505050565b600060208201905081810360008301526112d28184611001565b905092915050565b600060808201905081810360008301526112f581898b61105f565b905061130460208301886111ee565b818103604083015261131781868861105f565b9050818103606083015261132c81848661105f565b905098975050505050505050565b60006020820190508181036000830152611353816110c5565b9050919050565b6000602082019050818103600083015261137381611105565b9050919050565b6000602082019050818103600083015261139381611145565b9050919050565b600060208201905081810360008301526113b381611185565b9050919050565b60006020820190506113cf60008301846111ee565b92915050565b60006040820190506113ea60008301856111ee565b6113f760208301846111ee565b9392505050565b6000819050602082019050919050565b600081519050919050565b600081519050919050565b6000602082019050919050565b600082825260208201905092915050565b600081905092915050565b600082825260208201905092915050565b60006114698261151a565b91506114748361151a565b9250827fffffffffffffffffffffffffffffffffffffffffffffffffffffffffffffffff038211156114a9576114a8611598565b5b828201905092915050565b60006114bf8261151a565b91506114ca8361151a565b9250828210156114dd576114dc611598565b5b828203905092915050565b60006114f3826114fa565b9050919050565b600073ffffffffffffffffffffffffffffffffffffffff82169050919050565b6000819050919050565b82818337600083830152505050565b60005b83811015611551578082015181840152602081019050611536565b83811115611560576000848401525b50505050565b6000600282049050600182168061157e57607f821691505b60208210811415611592576115916115c7565b5b50919050565b7f4e487b7100000000000000000000000000000000000000000000000000000000600052601160045260246000fd5b7f4e487b7100000000000000000000000000000000000000000000000000000000600052602260045260246000fd5b6000601f19601f8301169050919050565b611610816114e8565b811461161b57600080fd5b50565b6116278161151a565b811461163257600080fd5b5056fea264697066735822122092df2fd94236211bc39b833144c41d76030bba76a030b680c5160106cdb13e7c64736f6c63430008000033",
  "immutableReferences": {},
  "source": "// SPDX-License-Identifier: MIT\r\npragma solidity ^0.8.0;\r\n\r\ncontract GlobotourWallet {\r\n    address public vendor; // Ganache Account 1 receives all payments\r\n\r\n    mapping(address => uint256) public balances;\r\n\r\n    struct Booking {\r\n        address user;\r\n        string hotelName;\r\n        string checkInDate;\r\n        string checkOutDate;\r\n        uint256 amount;\r\n        string currency;\r\n        uint256 timestamp;\r\n    }\r\n\r\n    Booking[] private bookings;\r\n    mapping(address => uint256[]) private userBookings;\r\n\r\n    // Events\r\n    event Deposit(address indexed user, uint256 amount, uint256 timestamp);\r\n    event BookingCreated(\r\n        uint256 indexed bookingId,\r\n        address indexed user,\r\n        address indexed vendor,\r\n        string hotelName,\r\n        uint256 amount,\r\n        string checkIn,\r\n        string checkOut\r\n    );\r\n    event PaymentSent(\r\n        uint256 indexed bookingId,\r\n        address indexed vendor,\r\n        uint256 amount\r\n    );\r\n\r\n    constructor(address _vendor) {\r\n        require(_vendor != address(0), \"Vendor address required\");\r\n        vendor = _vendor; // Set vendor to Ganache Account 1\r\n    }\r\n\r\n    // Deposit funds into the wallet\r\n    function depositFunds() external payable {\r\n        require(msg.value > 0, \"Invalid amount\");\r\n        balances[msg.sender] += msg.value;\r\n        emit Deposit(msg.sender, msg.value, block.timestamp);\r\n    }\r\n\r\n    // Make a booking and pay the vendor\r\n    function makeBooking(\r\n        string calldata hotelName,\r\n        string calldata checkIn,\r\n        string calldata checkOut,\r\n        uint256 amount,\r\n        string calldata currency\r\n    ) external returns (uint256 bookingId) {\r\n        require(balances[msg.sender] >= amount, \"Insufficient balance\");\r\n\r\n        // Deduct from user balance\r\n        balances[msg.sender] -= amount;\r\n\r\n        bookingId = bookings.length;\r\n\r\n        bookings.push(\r\n            Booking({\r\n                user: msg.sender,\r\n                hotelName: hotelName,\r\n                checkInDate: checkIn,\r\n                checkOutDate: checkOut,\r\n                amount: amount,\r\n                currency: currency,\r\n                timestamp: block.timestamp\r\n            })\r\n        );\r\n\r\n        userBookings[msg.sender].push(bookingId);\r\n\r\n        // Emit event including check-in and check-out\r\n        emit BookingCreated(bookingId, msg.sender, vendor, hotelName, amount, checkIn, checkOut);\r\n\r\n        // Send payment to vendor (Ganache Account 1)\r\n        (bool success, ) = vendor.call{value: amount}(\"\");\r\n        require(success, \"Payment to vendor failed\");\r\n\r\n        emit PaymentSent(bookingId, vendor, amount);\r\n    }\r\n\r\n    // Check the balance of the caller\r\n    function checkBalance() external view returns (uint256) {\r\n        return balances[msg.sender];\r\n    }\r\n\r\n    // Get total number of bookings\r\n    function getTotalBookings() external view returns (uint256) {\r\n        return bookings.length;\r\n    }\r\n\r\n    // Get a booking by ID\r\n    function getBooking(uint256 id)\r\n        external\r\n        view\r\n        returns (\r\n            address user,\r\n            string memory hotelName,\r\n            string memory checkIn,\r\n            string memory checkOut,\r\n            uint256 amount,\r\n            string memory currency,\r\n            uint256 timestamp\r\n        )\r\n    {\r\n        require(id < bookings.length, \"Booking not found\");\r\n\r\n        Booking memory b = bookings[id];\r\n        return (b.user, b.hotelName, b.checkInDate, b.checkOutDate, b.amount, b.currency, b.timestamp);\r\n    }\r\n\r\n    // Get all booking IDs of a user\r\n    function getUserBookings(address user)\r\n        external\r\n        view\r\n        returns (uint256[] memory)\r\n    {\r\n        return userBookings[user];\r\n    }\r\n\r\n    // Get the vendor address\r\n    function getVendorAddress() external view returns (address) {\r\n        return vendor;\r\n    }\r\n}",
  "sourcePath": "S:\\Programming\\BelfastMet\\dApps\\dApps_Final\\contracts\\GlobotourWallet.sol",
  "compiler": {
    "name": "solc",
    "version": "0.8.0+commit.c7dfd78e.Emscripten.clang"
  },
  "schemaVersion": "3.4.16",
  "updatedAt": "2025-12-30T08:54:06.693Z",
  "networkType": "ethereum",
  "devdoc": {
    "kind": "dev",
    "methods": {},
    "version": 1
  },
  "userdoc": {
    "kind": "user",
    "methods": {},
    "version": 1
  }
}